:020000040800F2
:1000000010140020CD010008B30F0008B902000849
:10001000B10F000825060008FB11000800000000D1
:10002000000000000000000000000000DF010008E8
:1000300027060008000000003B020008B50F00087A
:10004000E7010008E7010008E7010008E7010008F0
:10005000E7010008E7010008E7010008E7010008E0
:10006000E7010008E7010008E7010008E7010008D0
:10007000E7010008E7010008E7010008E7010008C0
:10008000E7010008E7010008E7010008E7010008B0
:10009000E7010008E7010008E7010008E7010008A0
:1000A000E7010008E7010008E7010008E701000890
:1000B000E7010008E7010008E7010008E701000880
:1000C000E7010008E7010008E7010008E701000870
:1000D000E7010008E7010008E7010008E701000860
:1000E000E7010008E7010008E7010008E701000850
:1000F000E7010008E7010008E7010008E701000840
:10010000E7010008E7010008E7010008E70100082F
:10011000E7010008E7010008E7010008E70100081F
:10012000E7010008E7010008E7010008E70100080F
:1001300000F002F800F03AF80AA090E8000C8244BF
:100140008344AAF10107DA4501D100F02FF8AFF29C
:10015000090EBAE80F0013F0010F18BFFB1A43F0A5
:10016000010318477C3600009C360000103A24BF7B
:1001700078C878C1FAD8520724BF30C830C144BF0C
:1001800004680C607047000000230024002500264E
:10019000103A28BF78C1FBD8520728BF30C148BFEA
:1001A0000B6070471FB51FBD10B510BD00F002FAFF
:1001B0001146FFF7F7FF00F030FA00F020FA03B421
:1001C000FFF7F2FF03BC00F021FA00000948804766
:1001D00009480047FEE7FEE7FEE7FEE7FEE7FEE729
:1001E000FEE7FEE7FEE7FEE704480549054A064B41
:1001F000704700008110000831010008100E002037
:10020000101400201010002010100020EFF31080B8
:1002100072B6704780F310887047344A1368012B18
:1002200004D04FF001031360314A1060314A11606D
:1002300031484FF0805101607047EFF3108272B681
:100240002A48016891B14FF0000101602848016817
:1002500029B1EFF3098121E9F00F00680160254918
:1002600009680968B1E8F00F81F3098882F3108802
:100270004EF0040E70471F4908601D494FF0000002
:1002800008601A494FF0010008601C481C49D0F86A
:10029000002041EA0201016017484FF080510160DF
:1002A00018480068006880F3088861B662B6BFF33A
:1002B0004F8FBFF36F8F70471EF0040F0CBFEFF32B
:1002C0000880EFF3098020E9F00F40F804ED1EF0FC
:1002D000040F0CBF80F3088880F3098800B502F092
:1002E000F7F85DF804EB4EF0040E70472C00002088
:1002F000240000202800002004ED00E020ED00E0B4
:100300000000FFFF08ED00E040EA0103024630B5BF
:100310009B0710D14FF0013400E008C208C91D1B33
:100320009D4315EAC41FF8D013F0FF0102F8011B2A
:100330000DD01B0AF8E711F8013B002B02F8013B36
:1003400005D011F8013B002B02F8013BF3D130BD81
:1003500010B5431C02E010F8011B71B18107FAD1FE
:100360004FF0013202C88C1A8C4314EAC211F9D042
:10037000C01A0A0603D0C01E10BDC01A10BD0A0460
:1003800001D0801E10BD0902FCD0401E10BD40EA05
:10039000010370B59B072ED14FF00136042A2AD3F2
:1003A00008C810C99D1B9D43121F15EAC61517D01A
:1003B000D8B2E1B2401A50EA056110D198B2A1B2A8
:1003C000401A50EA05410AD123F07F4024F07F41D2
:1003D000401A50EA052102D1180EA0EB146070BD3E
:1003E000A342DBD018BA21BA884201D9012070BDDE
:1003F0004FF0FF3070BD0AB9002070BD10F8013B0E
:1004000011F8014B63B1A3420AD1521E08D010F873
:10041000013B11F8014B1BB1A34201D1521EEDD19A
:10042000181B70BD421E12F8013F002BFBD111F8C2
:10043000013B002B02F8013BF9D170474FF000025D
:1004400000B5134694469646203922BFA0E80C50CA
:10045000A0E80C50B1F12001BFF4F7AF090728BFA5
:10046000A0E80C5048BF0CC05DF804EB890028BF21
:1004700040F8042B08BF704748BF20F8022B11F04A
:10048000804F18BF00F8012B704710B5044610F0DC
:10049000030F08BF11F0030F40F015804FF0013E2D
:1004A000121FC0F20E8051F8043BA3EB0E0C2CEA95
:1004B000030C1CEACE1C08BF40F8043BF0D0A1F1AD
:1004C000040102F10402521E08DB11F8013B002B6B
:1004D00000F8013BF7D1114600F045F8204610BD69
:1004E0004FF0013C50F8042B51F8043B9A4221D1C3
:1004F000A2EB0C03934313EACC1317D150F8042B4F
:1005000051F8043B9A4215D1A2EB0C03934313EA32
:10051000CC130BD150F8042B51F8043B9A4209D16B
:10052000A2EB0C03934313EACC13DBD04FF0000093
:10053000704700BFD01A01BAB1FA81F101F0180179
:1005400022FA01F0CB40C1F12001DBB2C0B2C01AE7
:100550002CFA01F3D11A914311EAC311E6D1704785
:100560007047704770474FF000020429C0F01280B6
:1005700010F0030C3FF464AFCCF1040CBCF1020F9B
:1005800018BF00F8012BA8BF20F8022BA1EB0C012B
:10059000FFF756BF5FEAC17C24BF00F8012B00F8CB
:1005A000012B48BF00F8012B70470000004870473E
:1005B000B00D00207546FFF7F9FFAE46050069460D
:1005C000534620F00700854618B020B5FFF70CFE13
:1005D000BDE820404FF000064FF000074FF0000844
:1005E0004FF0000B21F00701AC46ACE8C009ACE8C5
:1005F000C009ACE8C009ACE8C0098D4670470446A4
:10060000AFF300802046FFF7DAFD00000149182013
:10061000ABBEFEE726000200704710B502F08AFE6E
:10062000002010BDFEE770472DE9F84FDFF8C891B4
:100630000024A9F1040B23460F2709F1040AABF1AA
:10064000040ED1E00125A54006EA0502AA4276D1B2
:10065000DFF8A8C14E68A6EB0C0866452BD00DDC70
:10066000032E34D005DC36B3012E19D0022E2FD143
:100670001BE0112E16D0122E2AD119E0B8F5881FD2
:1006800019D006DCB8F5803F15D0B8F5801F1FD112
:1006900011E0B8F5001F0ED0B8F5041F18D10AE01C
:1006A000CB6815E0CB681B1D12E0CB6808330FE068
:1006B000CB680C330CE08B682BB1012B4FF0080397
:1006C00003D0456104E0042302E0056100E000235B
:1006D000FF2A01D8064601E000F104064FEA84052E
:1006E00001D9A5F12005D6F8008007FA05FC28EA13
:1006F0000C0803FA05F548EA0508C6F800804D68BD
:10070000ED0070D53E4DAE6946F00106AE61AD69B3
:1007100024F0030605F0010500953A4D06EB050CA3
:10072000DCF80850A607360F07FA06F825EA080590
:10073000DFF8D480404503D14FF0000825E052E0B7
:10074000DFF8C880404502D14FF001081DE0DFF816
:10075000C080404502D14FF0020816E0DFF8B480B7
:10076000404502D14FF003080FE0DFF8AC80404570
:1007700002D14FF0040808E0DFF8A080404502D124
:100780004FF0050801E04FF0060808FA06F848EABD
:100790000508CCF808804D68D9F80060ED024D4698
:1007A00001D5164300E096432E604D68DAF80060EC
:1007B000AD02554601D5164300E096432E604D68C4
:1007C000DBF80060AD035D4601D5164300E09643BB
:1007D0002E604D68DEF80060ED03754601D51643C6
:1007E00000E096432E60641C0A681646E2407FF4DF
:1007F00029AFBDE8F88F0000080401400000111087
:10080000001002400000014000080140000C0140BF
:10081000001001400014014000180140001C01407C
:10082000014880687047000000000020074810B5AC
:10083000016841F010010160032000F067F800201A
:1008400000F006F800F024F8002010BD002002405F
:1008500070B50D4D04464FF47A712878B1FBF0F075
:100860000A490968B1FBF0F000F0D4FA48B9102C3D
:1008700007D200222146501E00F028F800206C60AC
:1008800070BD012070BD0000000000200C000020A1
:100890000C4808B5816941F001018161816901F06D
:1008A00001010091C16941F08051C161C06900F04E
:1008B000805000900448416821F0E06141F00071EF
:1008C000416008BD0010024000000140F0B40E4B32
:1008D0001B680C46C3F30223C3F10705042D00D99E
:1008E0000425191D072901D2002300E0DB1E012683
:1008F00006FA05F1491E214099409E40761E164099
:100900003143F0BC00F07ABC0CED00E0064900F089
:10091000070208684FF6FF03184040EA0220034A26
:1009200010430860704700000CED00E00000FA057D
:100930002DE9F0470F46050061D0434E306800F0C6
:100940000700B84209D2306820F007003843306011
:10095000306800F00700B84251D128683B4C81074D
:1009600012D5400703D5606840F4E06060602878E5
:10097000000703D5606840F4605060606068A96853
:1009800020F0F000084360602878C00728D068682D
:10099000012810D02168022810D0890700292EDAFA
:1009A000616821F0030101436160FFF739FF804670
:1009B00041F288390DE021688903EFE78901EDE70D
:1009C000FFF72EFFA0EB0801494502D90320BDE83F
:1009D000F0876068696800F00C00B0EB810FEFD120
:1009E000306800F00700B8420BD9306820F00700EB
:1009F00038433060306800F00700B84201D0012071
:100A0000E5E72878400705D56068E96820F4E060EC
:100A1000084360602878000706D56068296920F4DB
:100A2000605040EAC100606000F03EF86168084A2A
:100A3000C1F30311515CC8400649086006480068CC
:100A4000FFF706FF0020C2E700200240001002402E
:100A5000A83400080C0000200400002001480068B1
:100A6000704700000C0000200448054900684968F0
:100A7000044AC1F30221515CC84070470C000020B9
:100A800000100240B834000804480549006849686D
:100A9000044AC1F3C221515CC84070470C000020D9
:100AA00000100240B83400080E4A51680E4801F0A8
:100AB0000C03042B11D0082B0FD10C48C1F3834336
:100AC000C903C05C0AD55168084AC1F34041921E6F
:100AD000515C054A5043B0FBF1F07047044948436C
:100AE000704700000010024000127A00983400089D
:100AF00000093D002DE9F84F040070D02078C04D6A
:100B0000C00749D06868C0F38100012807D0686831
:100B1000C0F38100022809D16868C00306D528689F
:100B2000800339D560680028E7D035E06068B0F50B
:100B3000803F0BD010B1B0F5A02F11D0286820F461
:100B400080302860286820F4802002E0286840F483
:100B500080302860606890B1FFF762FE06460AE0C8
:100B6000286840F480202860F0E700BFFFF758FEB7
:100B7000801B642873D828688003F7D50CE0FFF742
:100B80004FFE064605E000BFFFF74AFE801B6428C3
:100B9000F0D828688003F7D420789A4E80074FF069
:100BA00001094FF0000839D5686810F00C0F07D024
:100BB0006868C0F38100022809D16868C00306D4C0
:100BC0002868800714D52069012808D110E0206921
:100BD000B0B1C6F80090FFF723FE074605E00AE132
:100BE000FFF71EFEC01B0228C4D828688007F7D56F
:100BF0002868616920F0F80040EAC10028600DE033
:100C0000C6F80080FFF70CFE074604E0FFF708FE79
:100C1000C01B022823D828688007F7D42078000753
:100C20002CD57948A169D9B1C0F80090FFF7F8FD3B
:100C3000074604E0FFF7F4FDC01B02280FD8686ADE
:100C40008007F7D571484FF4FA510068B0FBF1F016
:100C5000009000BF0098411E0091FAD20EE080E0A3
:100C6000C0F80080FFF7DCFD074604E0FFF7D8FD81
:100C7000C01B022875D8686A8007F7D4207840071F
:100C800060D5E8690027C00008D4E86940F08050CA
:100C9000E861E869012700F0805000905C48016835
:100CA000C90513D40168834641F480710160FFF7E0
:100CB000B7FD824606E000BFFFF7B2FDA0EB0A00D9
:100CC00064284ED8DBF80000C005F5D5E06801289F
:100CD0000AD008B1052813D0286A20F00100286244
:100CE000286A20F0040002E0286A40F0010028622F
:100CF000E06841F2883B98B1FFF792FD82460BE035
:100D0000286A40F004002862EEE700BFFFF788FD84
:100D1000A0EB0A0159455AD8286A8007F6D50CE09D
:100D2000FFF77EFD824605E0FFF77AFDA0EB0A01A2
:100D300059454CD8286A8007F6D41FB1E86920F0DD
:100D40008050E861E06988B36968C1F381010229D4
:100D500044D00228C6F8608004D0FFF761FD044645
:100D600038E034E0FFF75CFD074604E0FFF758FD8C
:100D7000C01B02282BD828688001F7D4206AB0F560
:100D8000803F05D16868A16820F40030084368609E
:100D9000D4E908010843696821F4741108436860C4
:100DA000C6F86090FFF73CFD044606E025E000BF72
:100DB000FFF736FD001B022809D828688001F7D507
:100DC0001BE000BFFFF72CFD001B022802D9032007
:100DD000BDE8F88F28688001F4D40EE00128F7D030
:100DE0006868226A00F48031914204D1616A00F49B
:100DF0007010884201D00120EAE70020E8E70000F7
:100E00000010024000004242800442420C000020D8
:100E10000070004010B5401EB0F1807F01D301206A
:100E200010BD4FF0E02460610F21601700F0E6F97B
:100E30000020A06107202061002010BD70B50400D3
:100E400004D094F84100002510B106E0012070BDE7
:100E500084F84050204600F023F8242084F8410014
:100E60002068C16821F40051C160204600F030F9CB
:100E70002068016921F4904101612068416921F0F5
:100E80002A0141612068C16841F40051C160656474
:100E9000202084F8410084F842006563002070BD82
:100EA00030B585B000240094019402940394006846
:100EB0001449884224D11448816941F480418161F8
:100EC000816901F480410491816941F004018161EB
:100ED00080690E4D00F0040004904FF40070009003
:100EE000022001900320039069462846FFF79CFBEF
:100EF0002815CDE90004694628460294FFF794FBC3
:100F000005B030BD0038014000100240000801402B
:100F10002DE9F843044690F84100984616460D46E0
:100F2000202802D00220BDE8F88385B17EB10020E0
:100F30006064212084F84100FFF772FCA68481469A
:100F4000E684A0682027B0F5805F02D003E001208E
:100F5000E9E7206910B12E4600250EE000260CE0DE
:100F60008021204600F010F9A8B9C6B116F8010B8F
:100F700021684860E08C401EE084E08C4B464FF0D6
:100F80000002CDF800800028EAD14FF04001204651
:100F900000F0FAF840B184F841700320C3E735F857
:100FA000020BC0F30800E3E784F841700020BAE7C1
:100FB000FEE7FEE710B501F0A3FB01F053FFBDE82B
:100FC000104001F0ABBB10B590B028216846FFF788
:100FD00035FA14210AA8FFF731FA02200090012007
:100FE000049010200024059007946846FFF782FDC6
:100FF00008B172B6FEE70F20CDE90A040C940D94F7
:1010000000210AA80E94FFF793FC002801D072B6C5
:10101000FEE710B010BD0000144910B54868144A2E
:1010200010F00C03134803D0042B01D0082B09D077
:1010300002604968104AC1F30311515C0268CA405A
:10104000026010BD4A684B6802F470124FF002044F
:1010500013F4803F04EB924202D04B689B0301D50E
:10106000064B00E0024B5A43E2E70000001002404A
:1010700000127A000C000020A834000800093D008E
:10108000704701680C3151E8002F22F4907241E85A
:101090000023002BF5D10168143151E8002F22F014
:1010A000010241E80023002BF5D1016B012909D190
:1010B00001680C3151E8002F22F0100241E80023B2
:1010C000002BF5D1202180F84210002101637047E8
:1010D00070B5044600680169E26821F4405111438B
:1010E00001612169A0680843616908432168CA68F1
:1010F00041F20C639A430243CA6020684169A269C5
:1011000021F44071114341611E492068884202D197
:10111000FFF7BAFC01E0FFF7A7FC00EBC00101EB11
:101120000012606864218000B2FBF0F3B3FBF1F3BE
:101130006FF018067343B2FBF0F5B2FBF0F605EB67
:101140008305322303EB0515B5FBF1F5B6FBF1F68C
:1011500005F0F00505EB0615B2FBF0F6B2FBF0F07A
:10116000B0FBF1F06FF01802504306EB800003EB88
:101170000010B0FBF1F0216800F00F0028448860F7
:1011800070BD0000003801402DE9F843984617462D
:101190000D460446089E24E0701C22D0FFF740FB59
:1011A000A0EB0800B0421AD8CEB12068C168490748
:1011B00017D5802D15D0402D13D00168C9430907DC
:1011C0000FD401680025406800902046FFF759FFC2
:1011D0000820606484F840500120BDE8F8830320B3
:1011E000FBE72068006835EA000004D00020B84220
:1011F000D2D00020F1E70120F9E7FEE70907090E48
:10120000002804DB00F1E02080F80014704700F0B3
:101210000F0000F1E02080F8141D7047002806D070
:101220000E4910F0FF0F03D0C0B2085C401C70479D
:1012300010F47F4F04D0C0F30720085C09307047DA
:1012400010F47F0F04D0C0F30740085C11307047E2
:1012500001EB10600078193070470000C0340008BE
:101260002DE9F04788B091468A460646002500E001
:101270006D1C705D202803D0092801D05545F7D397
:101280004FF0FF3835B31448144F046809E02A467C
:1012900031462068FFF77BF810B92068405D20B127
:1012A0000C3438688442F2D314E0A46894B120224C
:1012B0000021684601F0B8FA6A465146304600F00F
:1012C00041FF38B16946A047C9F80000002008B0C6
:1012D000BDE8F0874046FAE7100000201400002027
:1012E00010B5044605488068FFF798FF0449401E82
:1012F00051F830102060A1F1140010BDA4000020AE
:10130000680C002070B50C480468FEF77FFF0546A6
:10131000204601F097FB04F1440001F033FE042065
:1013200084F83400204601F0A1FC2846FEF772FF45
:10133000BDE8704001F0F0BAA80000202DE9FC41A2
:101340001F460446DDE90831DDE90A6514304060D6
:101350000060C4E90827C4E90A310A462321184677
:1013600001F062FAD4E90A014218D4E908010E4BEF
:10137000121F01F0A9F9E06184F835600020C4E98A
:101380000E052564206384F83400206760670090B0
:1013900023460190054A194604F1440001F006FE77
:1013A0000020BDE8FC81000005130008B11300080F
:1013B00070B50446FEF72AFF05466FF00100206372
:1013C00004F1140001F0DEF9204601F001FB28468B
:1013D000FEF720FFBDE8704001F09EBA143001F026
:1013E000DAB9000010B51BA001F0A6F91C4C217859
:1013F0001CA001F0A1F92078C00702D01FA001F0C5
:101400009BF92078800702D51FA001F095F920787C
:10141000400702D51FA001F08FF92078000702D500
:1014200020A001F089F92078C00602D520A001F0A3
:1014300083F92078000607D509480F300168BDE818
:1014400010401DA001F078B9BDE810401EA001F0C9
:1014500073B90000627573206661756C743A0A0096
:1014600029ED00E05343425F434653525F424653E7
:10147000523A307825303258200000004942555306
:1014800045525220000000005052454349534552F6
:1014900052200000494D5052454349534552522075
:1014A00000000000554E53544B455252200000009E
:1014B00053544B45525220005343422D3E42464125
:1014C000523A253038580A000A00000010B502A030
:1014D00001F032F9002010BD1B5B324A1B5B480053
:1014E00010B50C46022811D115A16068FEF7F8FF6F
:1014F00000281BD014A16068FEF7F2FF002818D066
:1015000013A16068FEF7ECFF002815D011A001F0D0
:1015100013F916A001F010F917A001F00DF91DA0A4
:1015200001F00AF922A001F007F907E000F022FB20
:1015300004E000F0FDFB01E000F07AFA002010BDAD
:10154000746872656164000074696D657200000002
:1015500073656D0055736167653A206C697374201B
:101560005B6F7074696F6E735D0A00005B6F7074FF
:10157000696F6E735D3A0A002020202074687265DE
:101580006164202D206C69737420746872656164D5
:10159000730A00002020202074696D6572202D20C0
:1015A0006C6973742074696D6572730A00000000C1
:1015B0002020202073656D202D206C6973742073AA
:1015C000656D6170686F7265730A00000D4810B533
:1015D000C16891F82110890703D40B4900200870D5
:1015E0000EE0816821B180220748FEF74EFF03E03C
:1015F00006A10548FEF788FE06A10348FEF712FF84
:10160000014810BD10000020040100206D73682007
:10161000000000003E0000000349C96811F8212FB6
:1016200060F341020A70704710000020014AC2E9CD
:1016300000017047100000207FB514491448FFF7DF
:10164000F5FF154C13480A23A0F58F65E0601522BD
:101650004FF48061A0F580608DE80F0000230F4AF1
:101660000FA1783801F042FB064600231A460EA16E
:10167000E06801F00BFA0120FFF7CEFF16B928460B
:1016800001F09AFB04B0002070BD0000E0370008B4
:10169000803700080006002010000020B116000866
:1016A000747368656C6C00007368727800000000E9
:1016B000944DE86810F8211F41F001010170FFF717
:1016C00085FF01F039F8002600F0C2FE0400FBD4CB
:1016D0001B2C07D0E86890F82010012907D00229B8
:1016E0000ED017E0E968012081F82000ECE75B2CC0
:1016F00002D080F820600DE0022180F82010E3E79E
:1017000080F82060412CDFD0422CDDD0442C38D032
:10171000432C43D0002CD7D0FF2CD5D0092C4ED051
:101720007F2C71D0082C6FD00D2C6CD00A2C6AD075
:10173000B0F87410502901D3A0F87460B0F8763076
:10174000B0F874108B427DD2CA1A00F12201233006
:101750001944184401F04EF8E868B0F876102230C9
:101760000C54E86890F82110C90706D0B0F876103C
:101770002230014464A000F0DFFFE868B0F8764052
:101780009DE0B0F8760000289ED060A000F0D4FF65
:10179000E96831F8760F401E088095E7B0F87610BA
:1017A000B0F8742091428FD22230095C58A000F02A
:1017B000C3FFE86830F8761F491C018084E70024E5
:1017C00003E052A000F0B8FF641CE868B0F87600AF
:1017D000A042F6DCEC684FA0223400F0ADFF2046BA
:1017E00000F004FCFFF7F2FE014622464AA000F09A
:1017F000A3FFE8682230FEF7ABFDE96821F8740F1B
:10180000488061E700E03DE0B0F87620002AC4D0CF
:10181000B0F87410521E491E89B293B2A0F8741029
:10182000A0F87630994224D9CA1A00F12301223057
:101830001944184400F0DEFFE868B0F87410223054
:101840000E5400E041E0E868B0F876102230014420
:1018500033A000F071FFE868B0F8764003E02BA0F9
:1018600000F06AFF641CE868B0F87400A04294DBE2
:10187000F5E72DA000F060FFE868B0F874102230A2
:101880000E5421E790F82100C00702D021A000F0FB
:1018900053FFE868B0F87410223000F0F1FBFFF756
:1018A00095FE00F049FFE86851220021223000F047
:1018B000BBFFE86822E015A000F03EFF641CE8686A
:1018C000B0F87400A042F6DC0AE022300C54E8685C
:1018D00090F82100C00703D021460DA000F02CFF96
:1018E000E868B0F87410491C89B2A0F87410B0F818
:1018F0007620521CA0F876205029C2D320F8746FAD
:101900004680E1E61000002025730000080000007A
:10191000256300000A000000257325730000000005
:1019200008257320200800000820080010B5124C7C
:101930002068800702D511A000F0FEFE206840005C
:1019400011D50D48C01E007808B1FFF74BFD0A48BD
:10195000001F007808B100F0DDFA0748801E0088FB
:1019600008B101F02BFD2068002804DABDE8104022
:1019700008A000F0E1BE10BD2CED00E06661696CCE
:10198000656420766563746F722066657463680AA7
:10199000000000006465627567206576656E740AF4
:1019A000000000002DE9F04104461E4617460D4692
:1019B000084600F06FFF001D206025720020676060
:1019C000C4E90360BDE8F0812DE9F0410D46002136
:1019D0002961E96891B1297A81B12E6888B10446FC
:1019E000FEF714FC0146A4F10C002A7A007A20F0DC
:1019F0008000904209D00846FEF70CFC0020BDE8AC
:101A0000F0813446FEF702FC01466868002724682E
:101A1000B44201D1002404E010C0EA687F1CBA423D
:101A2000F5D10846FEF7F6FB20462F61E7E70000F8
:101A30002DE9F04194B0002733A408230BAA02211A
:101A400005A8FFF7AFFF082080460146224631A0D7
:101A500000F072FE404600F0DDFB35A000F06CFEA9
:101A600005A93846FFF7B0FF0746002643E00BA85C
:101A700050F826400C3CFEF7C9FB217A9DF81C204B
:101A800021F08001914202D0FEF7C4FB32E0FEF764
:101A9000C1FB04F114006169054681421FD000F0CA
:101AA00068FEA18BCDE9001023460822414626A0FE
:101AB00000F042FE2C680CE0A4F11402082126A0DC
:101AC00000F03AFE2068A84202D025A000F034FEC3
:101AD0002468AC42F0D115A000F02EFE0AE000F020
:101AE00048FEA18BCDE900102346082241461DA0E7
:101AF00000F022FE761C0998B042B8DC002FAFD16E
:101B000014B00020BDE8F08173656D6170686F727C
:101B100065000000252D2A2E732076202020737565
:101B20007370656E64207468726561640A000000F9
:101B3000202D2D2D202D2D2D2D2D2D2D2D2D2D2DEF
:101B40002D2D2D0A00000000252D2A2E2A73202578
:101B50003033642025643A00252E2A7300000000EB
:101B60002F000000252D2A2E2A73202530336420D3
:101B700025640A002DE9F041B4B000263DA40823F5
:101B80002CAA012108A8FFF70DFF08208046014676
:101B900022463A4800F0D0FD404600F03BFB38A01A
:101BA00000F0CAFD08A93046FFF70EFF06460025E3
:101BB00057E02CA850F825400C3CFEF727FB0746C1
:101BC000207A9DF8281020F08000884203D0384603
:101BD000FEF720FB44E0782221460EA800F0E4FD49
:101BE0003846FEF717FB94F835000090234608228C
:101BF000414633A000F0A0FD94F8340000F0070047
:101C0000012807D0022807D040B1042808D00328B3
:101C100008D00AE02DA006E02FA004E031A002E0E9
:101C200033A000E035A000F087FDA76A00E07F1C2C
:101C300038782328FBD0206B00F0A6FF0146D4E9BA
:101C40000A023B1AD31A64277B43276CCDE9007143
:101C5000B3FBF2F3E169401A81182BA000F06CFD90
:101C60006D1C0C98A842A4DC002E9BD134B000203F
:101C7000BDE8F0817468726561640000E4350008B5
:101C8000202D2D2D20202D2D2D2D2D2D2D202D2DB8
:101C90002D2D2D2D2D2D2D2D202D2D2D2D2D2D2D81
:101CA0002D2D2D20202D2D2D2D2D2D20202D2D2D98
:101CB0002D2D2D2D2D2D2D202D2D2D0A0000000038
:101CC000252D2A2E2A732025336420002072656179
:101CD00064792020000000002073757370656E64C5
:101CE0000000000020696E697420202000000000C0
:101CF00020636C6F73652020000000002072756EF9
:101D00006E696E670000000020307825303878203A
:101D10003078253038782020202025303264252561
:101D20002020203078253038782025730A000000E4
:101D3000F0B593B000262AA408230BAA0A2104A810
:101D4000FFF730FE08272246394627A000F0F4FCB2
:101D5000384600F05FFA31A000F0EEFC04A93046EE
:101D6000FFF732FE064600252CE00BA850F8254070
:101D70000C3CFEF74BFA217A9DF8182021F08001E7
:101D8000914202D0FEF746FA1BE0FEF743FAD4E98F
:101D90000901CDE900012346082239462BA000F0B5
:101DA000CBFC607AC00701D02EA000E031A000F08B
:101DB000C3FC607A800701D532A000E034A000F0B7
:101DC000BBFC6D1C0898A842CFDC002EC6D101F0E8
:101DD00043F8014631A000F0AFFC13B00020F0BD85
:101DE00074696D6572000000252D2A2E7320207005
:101DF0006572696F64696320202074696D656F7511
:101E000074202020206163746976617465642020E9
:101E10002020206D6F64650A00000000202D2D2D0C
:101E20002D2D2D2D2D2D2D202D2D2D2D2D2D2D2DEF
:101E30002D2D202D2D2D2D2D2D2D2D2D2D2D202DEC
:101E40002D2D2D2D2D2D2D2D0A000000252D2A2E76
:101E50002A7320307825303878203078253038784B
:101E6000200000006163746976617465642020203D
:101E700000000000646561637469766174656420C4
:101E800000000000706572696F6469630A000000F9
:101E90006F6E652073686F740A000000637572725C
:101EA000656E74207469636B3A3078253038780A2F
:101EB0000000000008B5FEF7B9FCFFF784F80E48F3
:101EC000816941F00401816180690C4900F00400DE
:101ED00000900B480C2201604FF4E1314160002179
:101EE0008160C160C0E904128161C161FEF7A6FF93
:101EF00008B172B6FEE7FEE700100240003801406C
:101F0000BC00002010B500F057FABDE81040FFF704
:101F1000D1BF000010B518A000F00EFC1B4C2178BA
:101F20001BA000F009FC2078C00702D01EA000F022
:101F300003FC2078800702D51EA000F0FDFB20786E
:101F4000000702D51EA000F0F7FB2078C00602D5DE
:101F50001EA000F0F1FB2078000607D50B480C30DE
:101F60000168BDE810401CA000F0E6BBBDE81040D1
:101F70001D4800F0E1BB00006D656D206D616E6174
:101F80006765206661756C743A0A000028ED00E010
:101F90005343425F434653525F4D4653523A307863
:101FA00025303258200000004941434356494F4CE8
:101FB000200000004441434356494F4C200000009C
:101FC0004D554E53544B4552522000004D53544BE7
:101FD00045525220000000005343422D3E4D4D41DA
:101FE000523A253038580A002C3400082DE9F047C1
:101FF0008146002500782C4618B11E481E4F066801
:102000002AE0BDE8F0470021084600F06BB84846DA
:10201000D6F80080FEF79CF9024641464846FEF796
:10202000B6F9C0B925B944464046FEF791F90546D0
:102030004146204601E0401C491C02781AB10B7849
:102040000BB19A42F7D0001BA84200DA0546414680
:102050000AA000F071FB0C3638688642D7D3002CFA
:1020600006D02A4621464846BDE8F04700F0A2BD0A
:10207000BDE8F087100000201400002025730A003E
:1020800038B5044601E0491E641C59B12078202867
:10209000F9D00928F7D06A462046FFF7E1F818B1D1
:1020A000204604E0002038BD009838BD401C01786F
:1020B000202901D00029F9D100210170214603A077
:1020C00000F03AFB4FF0FF3038BD000025733A2096
:1020D000636F6D6D616E64206E6F7420666F756ED8
:1020E000642E0A0070B50AA000F026FB0F48104DC0
:1020F000046805E0D4E900120EA000F01DFB0C34CA
:1021000028688442F6D30EA000F016FB002070BDB4
:1021100052542D546872656164207368656C6C203C
:10212000636F6D6D616E64733A0A000010000020E9
:1021300014000020252D313673202D2025730A0030
:102140000A00000070B5002315461C461A464BE0F5
:1021500000F8012B5B1C0678202E01D0092E01D13E
:102160008B42F5D3082C11D321A000F0E5FA00260C
:1021700006E000BF55F8261025A000F0DDFA761C19
:10218000A642F7D321A000F0D7FA2FE08B422DD240
:10219000F6B2222E03D045F82400641C1BE0401C3C
:1021A00045F824005B1C641C08E05C2E04D14678D2
:1021B000222E01D1401C5B1C401C5B1C0678222E89
:1021C00001D08B42F1D38B4210D200F8012B5B1C63
:1021D0000AE0401C5B1C0678202E03D0092E01D09B
:1021E0008B42F6D38B4201D28B42B4D3204670BDD2
:1021F000546F6F206D616E792061726773202120AA
:102200005765206F6E6C79205573653A0A0000009F
:102210002573200010B5044602E003A000F08CFAFC
:10222000641EFAD210BD00002D0000002DE9F04F11
:1022300085B09946DDE90EA5109CAB46630602D534
:10224000DFF814C103E0DFF810C1ACF1110CE306B4
:1022500001D524F00104E30701D0302300E020235E
:1022600000260493A3070BD5002A02DA2D2652423A
:1022700006E0630701D52B2602E0230700D52026C0
:102280000023EE4622B930228DF8002001230CE015
:10229000B9F10A0F14D002F00F0812091CF80880D7
:1022A0000EF803805B1C002AF2D1AB4200DD1D4614
:1022B000AAEB050214F0110F4FF0200708D015E02B
:1022C0000A27B2FBF7F807FB1828B2FBF7F2E5E79D
:1022D0003EB1002A05DD521E03E0884200D207709D
:1022E000401CB2F1000CA2F10102F6DC26B18842DA
:1022F00000D20670401C521EE40605D508E0884254
:1023000001D2049C0470401C141EA2F10102F6DCF0
:1023100030242E466D1E9E420ADD884200D2047093
:10232000401CF6E7884201D2E55C0570401C00E0E5
:1023300074461D1EA3F1010307DDBBF1000FF1D1AF
:1023400003E0884200D20770401C131EA2F1010274
:10235000F7DC05B0BDE8F08FD135000800F0B0B86B
:102360001FB50A4C14230A224FF48061A4F5806043
:102370008DE80F000023064A06A1204600F0B6FCB7
:1023800004B02046BDE8104000F016BD780A0020D9
:10239000051F00086D61696E0000000070B5044CF7
:1023A000044D02E020688047241DAC42FAD370BD82
:1023B0006C3700087437000870B5044C044D02E017
:1023C00020688047241DAC42FAD370BD74370008E2
:1023D0007C37000810B5FDF719FF044A5188491CE5
:1023E0005180BDE81040FDF715BF0000A40000209B
:1023F00010B5FDF70BFF0B4C6188491E09B26180D7
:1024000000290ADC00216180FDF704FF60680028D4
:1024100007D0BDE8104000F07FBABDE81040FDF7DE
:10242000F9BE10BDA400002010B5FEF7FFF9FEF7BD
:10243000CAFDFEF7F1FDFEF711FB4FF47A71B0FB18
:10244000F1F0FEF7E7FCBDE81040FFF7A7BF000082
:10245000084810B500684FF0FF340168C943890689
:1024600002D44068C4B202E00A2000F057FCE0B297
:1024700010BD0000680D0020F8B506460D200F497C
:102480008DF80000002481F84040304600F08AFBBF
:1024900005460FE0305D0A2805D101231A4669463A
:1024A0000648FEF735FD012331191A460348FEF7A9
:1024B0002FFD641CAC42EDD3F8BD0000680D002078
:1024C00002490148086070470400FA050CED00E07D
:1024D00070B50546041D2C48016819B12846884787
:1024E00000284FD029A0E16B00F026F92BA0216A2B
:1024F00000F022F92DA0616A00F01EF92FA0A16A58
:1025000000F01AF931A0E16A00F016F933A0216851
:1025100000F012F935A0616800F00EF937A0A1684B
:1025200000F00AF939A0E16800F006F93BA0216942
:1025300000F002F93DA0616900F0FEF83FA0A1693A
:1025400000F0FAF841A0E16900F0F6F843A0216B31
:1025500000F0F2F845A0616B00F0EEF847A0A16B27
:1025600000F0EAF82878400706D500F0FDFB0146A8
:1025700046A000F0E1F802E04CA000F0DDF8FFF723
:10258000D5F9FEE770BD0000200000207073723A9C
:10259000203078253038780A000000007230303A58
:1025A000203078253038780A000000007230313A47
:1025B000203078253038780A000000007230323A36
:1025C000203078253038780A000000007230333A25
:1025D000203078253038780A000000007230343A14
:1025E000203078253038780A000000007230353A03
:1025F000203078253038780A000000007230363AF2
:10260000203078253038780A000000007230373AE0
:10261000203078253038780A000000007230383ACF
:10262000203078253038780A000000007230393ABE
:10263000203078253038780A000000007231303AB6
:10264000203078253038780A000000007231313AA5
:10265000203078253038780A000000007231323A94
:10266000203078253038780A00000000206C723A5B
:10267000203078253038780A000000002070633A56
:10268000203078253038780A0000000068617264D4
:10269000206661756C74206F6E2074687265616469
:1026A0003A2025730D0A0D0A00000000686172646B
:1026B000206661756C74206F6E2068616E646C6555
:1026C000720D0A0D0A00000070B50446121D22F0BA
:1026D00007000022094D403840F82250521C102AB1
:1026E000FAD301620021416281624FF0807200F1F1
:1026F0003005C263C16285E81A0070BDEFBEADDE71
:1027000010B5FDF783FD044A1178491C1170BDE82E
:102710001040FDF77FBD00003C00002010B5FDF724
:1027200075FD044A1178491E1170BDE81040FDF78F
:1027300071BD00003C0000200FB47F2110B503AB39
:102740000748029A00F0A4FC04467F2800D97F24A1
:102750000348FFF791FE204610BC5DF814FB000013
:10276000E80B00200268516002680A60016048605E
:1027700070470246002100E0491C00689042FBD1EE
:1027800008467047D0E900124A60D0E90012116093
:10279000406000607047D0E900124A60D0E9001242
:1027A000116040600060704710B50346102A1DD3C9
:1027B00041EA0304A40719D110C9103A10C310C983
:1027C000102A10C351F8084B43F8084B51F8044C39
:1027D00043F8044CF0D202E010C9121F10C3042ABF
:1027E000FAD203E011F8014B03F8014B521EF9D263
:1027F00010BD000010B50346994211D28C189C42BE
:102800000ED9811804E000BF14F8013D01F8013D24
:10281000521EF9D210BD00BF11F8014B03F8014B55
:10282000521EF9D210BD000010B50346CCB2042AE6
:102830001AD3810718D1194644EA042343EA034313
:1028400006E008C1103A08C141F8083B41F8043CD1
:10285000102AF6D201E008C1121F042AFBD20B464F
:1028600002E000BF03F8014B521EFBD210BD10B5B1
:10287000044600202072FDF7C9FCF4E903124A6007
:10288000D4E90012116064602460BDE81040FDF7D7
:10289000C1BC0000074A002102EB01131B788342F0
:1028A00002D102EB01107047491C0329F4DB002020
:1028B00070470000740000202DE9F04105461746DE
:1028C0000E460846FFF7E6FF0446FFF783FD211D8D
:1028D000606800E000688842FCD1FFF789FD46F09F
:1028E0008000287208223946284600F063F9FDF777
:1028F0008DFC54F8041F0C354D602168296025605B
:102900006C60BDE8F041FDF785BC007A000601D59A
:102910000120704700207047F8B5FDF777FC2A4D7D
:1029200007466888D0BBA868C0B300266846FEF793
:10293000D7FC0446686890F8341001F00702032AB7
:102940000ED190F83520009B9A4202D303D10A079A
:1029500001D4044600E0012621F0080180F834107B
:10296000844222D0009A29462A7005464C600EB156
:1029700000F02EF8204600F065F894F8340020F0BE
:102980000700C01C84F834001048007804F11C01D2
:10299000002805F11C0002D0FDF73FFC0EE0FDF71A
:1029A0003CFC3846FDF736FCF8BD00F04BF8686893
:1029B00010F8341F21F00701C91C01703846BDE82A
:1029C000F840FDF727BC0000A40000203C000020D8
:1029D00070B50546FDF71AFC18490246486885425D
:1029E00006D115F8340F20F00700C01C287020E035
:1029F00095F8340005F1140420F00700401C85F818
:102A0000340003070E4895F8353000EBC30006D5B7
:102A100043681C60436863604460206005E00368AD
:102A20005C600368236004606060A86B8B68184377
:102A30008860BDE870401046FDF7ECBBA4000020A4
:102A4000680C002010B50446FDF7E0FB04F114010A
:102A5000D1E900235360D1E900231A60A1616161CB
:102A600094F83520074951F8323001EBC2018B420E
:102A700004D10549A36B8A689A438A60BDE8104077
:102A8000FDF7C8BB680C0020A40000202DE9F04130
:102A900016460A461F4605460221FFF70DFF05F1BF
:102AA0001404AC616C61AE836F720020BDE8F081EC
:102AB0001CB50AA0FFF740FE0BA0FFF73DFE13A1D7
:102AC00015A0CDE9000101231A46042115A0FFF746
:102AD00033FE1DA0FFF730FE1CBD00000A205C2065
:102AE0007C202F0A000000002D205254202D202091
:102AF000202020546872656164204F706572617493
:102B0000696E672053797374656D0A0031323A310A
:102B1000323A3135000000004E6F762031372032D6
:102B200030323400202F207C205C202020202025E3
:102B3000642E25642E2564206275696C64202573DB
:102B40002025730A000000002032303036202D206E
:102B50003230323220436F70797269676874206254
:102B6000792052542D546872656164207465616DDA
:102B70000A0000000FB410B504AA039900F0CAFBC4
:102B800010BC5DF814FB0000002800DA4042044944
:102B90000B2801DDC86A704751F82000704700001B
:102BA00044000020014600E0491C0A78002AFBD1BD
:102BB000081A704710B5002A07D0034611F8014BD8
:102BC00003F8014B2CB1521EF8D110BD03F8011BC4
:102BD00000E00021521EF9D110BD000010B5074BD6
:102BE0000022074C5A80104604EBC001401C49608B
:102BF00009602028F8DB9A6010BD0000A4000020C6
:102C0000680C002038B56846FEF76AFB04460648A3
:102C100044602046FFF716FF032084F8340004F1D7
:102C20001C00FDF728FB38BDA400002001484060CF
:102C300000607047B40000207047000070B50A487B
:102C40000025046884420DD0A4F11405FDF7DEFAD6
:102C5000D4E900124A60D4E9001211606460246073
:102C6000FDF7D8FA284670BD34000020044914301E
:102C70000A6850600A68026008604160704700009E
:102C800034000020FFF7DAFF0400FBD0256FFFF7C8
:102C90003CFE012802D12046FFF7E9FD002DF1D0CE
:102CA0002046A847EEE7000010B586B000220BA131
:102CB00004A8FFF75FFF0B4820231F2280218DE827
:102CC0000F00A0F1780420460023074A04A900F071
:102CD0000DF8204600F070F806B010BD7469646C01
:102CE00065256400680B0020852C00082DE9FF5F36
:102CF00092460EAA0C4692E8E0010A46994683469F
:102D00000121FFF7D9FD8DE8E0014B4652462146EF
:102D10005846FEF713FB04B0BDE8F09F10B500F075
:102D200082F8BDE8104000F025B870B5044690F870
:102D3000340000F00700022802D04FF0FF3070BDD1
:102D4000FDF764FA054604F11400FFF71BFD04F1DA
:102D5000440000F085F92046FFF73AFE2846FDF7CB
:102D600059FA002070BD000001480068704700005B
:102D7000A8000020F1B50F480468FDF747FA0646A1
:102D800000252046256300F02BF804F144006A4634
:102D90000021074600F0D0F8384600F01FF9304611
:102DA000FDF738FAFFF7B8FD206B801C00D12563D2
:102DB000206BF8BDA800002010B590F83520012147
:102DC00091408163022180F83410FFF7AEFF034881
:102DD000006808B1FFF7A0FD002010BDA80000208A
:102DE00070B5044690F8340000F00700012804D0C4
:102DF000032802D04FF0FF3070BDFDF707FA0546FB
:102E00002046FFF71FFE94F8340020F00700801CD6
:102E100084F8340004F1440000F022F92846FDF75C
:102E2000F9F9002070BD002802DA4FF0FF3070473A
:102E30004FF47A7190FBF1F290FBF1F301FB130078
:102E400000EB40034A43C3EBC0104B1E03EBC00032
:102E500090FBF1F010447047014800687047000093
:102E60003000002010B5FDF7D1F904460E48016886
:102E7000491C0160FFF778FF016C491E016406D010
:102E80002046FDF7C7F9BDE8104000F00FB8C16B50
:102E9000016410F8341F41F0080101702046FDF76D
:102EA000B9F9FFF739FDEEE7300000202DE9FC41CC
:102EB000CDF804D0CDF800D0FFF7CEFF0646FDF7E1
:102EC000A5F907461B4D2DE060696FF00041301AEF
:102ED000143C884229D22046FEF780FA607A8107A6
:102EE00002D420F00100607204F1140188466846A3
:102EF000FFF738FCD4E907108847FFF7ADFF064617
:102F00000098694688420DD04046FFF744FC607A3D
:102F1000810707D5C10705D020F001006072204667
:102F200000F05CF82C68AC42CED13846FDF772F95F
:102F3000BDE8FC81B400002070B515460E4604467D
:102F4000FDF764F9062E17D2DFE806F00503080C3A
:102F5000111A616A0FE0296861620DE0617A21F05F
:102F6000020102E0617A41F00201617204E0617ADB
:102F7000C90700D001212960FDF74CF9002070BD80
:102F8000A16AF8E770B50446FDF740F9054620460A
:102F9000FEF724FA607A20F0010060722846FDF7FF
:102FA00039F92046FFF763FC002070BD2DE9F041A0
:102FB0001746DDE906580A461E4604460A21FFF771
:102FC0007BFC28F0010161720021C4E90951C4E9C8
:102FD0000776143464602460BDE8F0812DE9F8437D
:102FE0000446FDF713F980462046FEF7F7F9607AAC
:102FF00020F001006072FFF72FFF616A174A431843
:10300000A3620020009202EBC002694656686FF08E
:1030100000475DF820200AE01268A2EBC0056D6948
:103020009D4202D0ED1ABD4203D341F82020B242A6
:10303000F2D10A48001F0168491C016004F1140123
:103040000098FFF78FFB607A40F001006072404605
:10305000FDF7E0F80020BDE8F8830000B400002090
:1030600070B50446407AC0070ED0FDF7CFF805468C
:103070002046FEF7B3F9607A20F00100607228461E
:10308000FDF7C8F8002070BD4FF0FF3070BD0000A4
:103090002DE9FF4F8946044600EB090783B08046BF
:1030A0004FF0FF3A4FF0200BA74202D25746C8F12B
:1030B000FF390BE1252803D0BC4200D2207080E00C
:1030C00000260599491C059108782D2811D02B2838
:1030D00012D0202813D0232814D0302815D00A78F5
:1030E0005546303A0A2A13D205A800F038F90546A9
:1030F0001AE046F01006E4E746F00406E1E746F081
:103100000806DEE746F02006DBE746F00106D8E7D2
:103110002A2809D10698491C059120C80690002D3F
:1031200002DA6D4246F010060598D44601782E2941
:1031300018D1401C05900178A1F130020A2A04D26E
:1031400005A800F00CF9844607E02A2908D1401CA4
:103150000590069850F804CB0690BCF1000F01DAF8
:103160004FF0000C059A00201178682901D06C29D5
:1031700002D1521C0846059211780A236F2974D097
:103180000CDC63291FD004DC25296FD058290DD110
:1031900084E0642901D0692908D183E0702966D0D0
:1031A00073292CD075297FD0782979D0BC4201D2DF
:1031B000252020700598641C0178E9B3BC4200D238
:1031C0002170641C7FE0F00608D458466D1E002D67
:1031D00004DDBC4200D22070641CF7E70698BC42B4
:1031E00010F8041B069000D22170584602E0BC4241
:1031F00000D22070641C6D1E002DF8DC63E0069880
:1032000002C8069001B941A1002000E0401CA8427C
:1032100002D00A5C002AF9D1BCF1000F02DD604542
:1032200000DD6046F2060BD45A462B466D1E8342E3
:1032300006DDBC4202D200E054E02270641CF4E7D8
:10324000002206E0BC4201D20B782370491C521CBC
:10325000641C8242F6DB5A4629466D1E814232DDED
:10326000BC4200D22270641CF6E715E010E0681C36
:1032700002D1082546F00106CDE9005C06980296C9
:10328000102304C806903946204619E00CE007E0F8
:10329000BC4296D2252011E7082305E046F04006FF
:1032A000102301E046F002066C2801D068281CD0EB
:1032B000069804C80690CDE9005C3946204602967F
:1032C000FEF7B4FF04460598401C05900598007869
:1032D00000287FF4EFAEB9F1000F11D0BC420DD23F
:1032E00020700DE0401E0590EDE7069830F8041BB5
:1032F00006908AB2B007DED512B2DCE707F8010CFF
:1033000007B0A4EB0800BDE8F08F0000284E554C34
:103310004C290000134610B50A464FF0FF31FFF765
:10332000B7FE10BD00207047002070470020704796
:103330000020704710B5FCF769FFFFF775F8FFF73D
:10334000B7FBFFF773FCFFF749FCFFF709F8FFF73E
:1033500073FCFFF7A9FCFFF755FC002010BD10B56A
:10336000014600206FF02F0307E0541C0C60127818
:1033700000EB800003EB400010440A681478303CF6
:103380000A2CF2D310BD00000B4810B509490160AA
:103390004FF4E1314160002181600C22C160C0E93D
:1033A00004128161C161FDF749FD002800D0FEE7EC
:1033B00010BD000000380140680D002010B518A0B5
:1033C000FFF7BAF91A4C21881AA0FFF7B5F920883F
:1033D000C00702D01DA0FFF7AFF92088800702D5F3
:1033E0001DA0FFF7A9F92088400702D51DA0FFF70F
:1033F000A3F92088000702D51CA0FFF79DF92088BB
:10340000C00502D51BA0FFF797F92088800502D5DB
:103410001BA0FFF791F9BDE8104004A0FFF78CB99D
:103420007573616765206661756C743A0A00000007
:103430002AED00E05343425F434653525F554653E3
:10344000523A30782530325820000000554E44451D
:1034500046494E5354522000494E56535441544508
:1034600020000000494E5650432000004E4F43506C
:1034700020000000554E414C49474E454420000075
:1034800044495642595A45524F20000010B5FFF7A3
:103490000FFB002010BD0102020304050607080906
:1034A0000A0B0C0D0E0F10100000000000000000B1
:1034B00001020304060708090000000001020304DA
:1034C00000000100020001000300010002000100F1
:1034D00004000100020001000300010002000100DD
:1034E00005000100020001000300010002000100CC
:1034F00004000100020001000300010002000100BD
:1035000006000100020001000300010002000100AA
:10351000040001000200010003000100020001009C
:10352000050001000200010003000100020001008B
:10353000040001000200010003000100020001007C
:103540000700010002000100030001000200010069
:10355000040001000200010003000100020001005C
:10356000050001000200010003000100020001004B
:10357000040001000200010003000100020001003C
:10358000060001000200010003000100020001002A
:10359000040001000200010003000100020001001C
:1035A000050001000200010003000100020001000B
:1035B00004000100020001000300010002000100FC
:1035C0003031323334353637383961626364656699
:1035D000003031323334353637383941424344458F
:1035E00046000000252D2A2E73207072692020735A
:1035F0007461747573202020202020737020202097
:103600002020737461636B2073697A65206D617823
:103610002075736564206C656674207469636B2023
:10362000206572726F720A004F4B000045494E567A
:10363000414C000045525346554C4C00454E4F4DB1
:10364000454D000045494F004552524F5200000081
:10365000454E4F535953000045494E545250540063
:103660004554494D4F55540045554E4B4E4F57000C
:103670004542555359000000455253455054590096
:10368000636C65617200636C6561722074686520AB
:103690007465726D696E616C2073637265656E002E
:1036A00076657273696F6E0073686F772052542D60
:1036B0005468726561642076657273696F6E206903
:1036C0006E666F726D6174696F6E006C6973745FA2
:1036D000746872656164006C6973742074687265E3
:1036E0006164006C6973745F73656D006C697374F9
:1036F0002073656D6170686F726520696E207379E3
:103700007374656D006C6973745F74696D657200C4
:103710006C6973742074696D657220696E207379A9
:103720007374656D006C697374006C697374206FD9
:10373000626A656374730068656C700052542D543E
:103740006872656164207368656C6C2068656C7074
:103750002E007265626F6F74005265626F6F742025
:1037600053797374656D0000313300082933000804
:103770008933000825330008391600082D33000866
:103780008036000886360008CD140008A0360008F0
:10379000A83600088D340008CB360008D73600085C
:1037A000751B0008E3360008EC360008311A0008E3
:1037B0000537000810370008311D000825370008BC
:1037C0002A370008E1140008373700083C370008A2
:1037D000E520000852370008593700085D2300082B
:1037E0000038000800000020BC0000006C01000848
:1037F000BC380008BC0000205413000088010008F9
:1038000001000000100000000000000000127A001B
:1038100000000000000000000000000000000000A8
:103820000000000000000000000000000000000098
:1038300000000000340000203400002000000000E0
:1038400000000000283600084836000860360008EE
:1038500034360008783600083C3600085036000838
:103860007036000844360008583600082C36000828
:103870006836000801000000780000207800002071
:10388000780000000200000088000020880000206E
:10389000200000000A00000098000020980000208E
:1038A0002C000000000000000000000000000000EC
:0C38B0000000000000000000000000000C
:0400000508000131BD
:00000001FF
